:020000040000FA
:020000000328D3
:040002000034003492
:0A000600831203179E019F01FF30D3
:100010008316031387008316031386002830A90074
:100020005330A800A80B1228A90B11282830A900CA
:100030005330A800A80B1A28A90B19282830A900AA
:100040005330A800A80B2228A90B21282830A9008A
:100050005330A800A80B2A28A90B29282830A9006A
:100060005330A800A80B3228A90B3128831603139C
:100070008701831603138601831203138701860108
:100080003830A70043210F30A70043218316031304
:1000900038309F004A28831203138B1383120313F3
:1000A000FC3020020319A0018312031320088312DD
:1000B00003178D00831203132108831203178C008A
:1000C000831603178C130C1555308D00AA308D0044
:1000D0008C148C1869280C1183120313A00A831244
:1000E00003132008831203178D00831203132208C1
:1000F000831203178C00831603178C130C155530CD
:100100008D00AA308D008C148C1884280C11831259
:100110000313A00A831203132008831203178D0010
:10012000831203132308831203178C00831603170B
:100130008C130C1555308D00AA308D008C148C1842
:100140009F280C1183120313A00A831203132008A3
:10015000831203178D0083120313240883120317DD
:100160008C00831603178C130C1555308D00AA30A4
:100170008D008C148C18BA280C1183120313A00A5A
:10018000FC30AC00831203132C08831203178D007C
:10019000831203132008831203178C00831603179E
:1001A0008C130C1555308D00AA308D008C148C18D2
:1001B000D7280C1183120313FD30AC0083120313F4
:1001C0002C08831203178D00831203132508831252
:1001D00003178C00831603178C130C1555308D00F4
:1001E000AA308D008C148C18F3280C118312031381
:1001F0008B1708008312031391309F00000000004A
:1002000000000000000000009F149F180529031043
:10021000831603139E0A1E0C83120313A10083127C
:10022000031391309F000000000000000000000058
:1002300000009F149F181A290310831603139E0AA7
:100240001E0C83120313A1000800831603138717E3
:100250008312031386160612000006170000000022
:100260000613871B2C298612831603138713831208
:1002700003130616270883120313870006170000CE
:100280000000061308008316031387178312031355
:100290008616061200000617000000000613871BD2
:1002A0004A29861283160313871383120313061237
:1002B00027088312031387000617000000000613A7
:1002C0000800AA01AB000A30AB02AB1B6929AA0ADD
:0602D0006429AB070800E1
:02400E00F73F7A
:00000001FF
