:020000040000FA
:020000000328D3
:040002000034003492
:0A0006002830A9005230A800A80B12
:100010000728A90B06282830A9005230A800A80BF1
:100020000F28A90B0E282830A9005230A800A80BD1
:100030001728A90B16282830A9005230A800A80BB1
:100040001F28A90B1E282830A9005230A800A80B91
:100050002728A90B26288316031387018316031369
:10006000860183120313861206120430061700005D
:1000700006133830061700000613831603133830B2
:100080009F006130A700F42041288B1383120313D3
:10009000A00AFC3020020319A001200883120317D4
:1000A0008D00831203132108831203178C0083161B
:1000B00003178C130C1555308D00AA308D008C144D
:1000C0008C1860280C1183120313A00A20088312D5
:1000D00003178D00831203132208831203178C0069
:1000E000831603178C130C1555308D00AA308D0024
:1000F0008C148C1879280C1183120313A00A200881
:10010000831203178D00831203132308831203172E
:100110008C00831603178C130C1555308D00AA30F4
:100120008D008C148C1892280C1183120313A00AD2
:100130002008831203178D008312031324088312EF
:1001400003178C00831603178C130C1555308D0084
:10015000AA308D008C148C18AB280C118312031755
:10016000FC308D00831203132008831203178C00C8
:10017000831603178C130C1555308D00AA308D0093
:100180008C148C18C1280C1183120317FD308D00BC
:10019000831203132508831203178C008316031799
:1001A0008C130C1555308D00AA308D008C148C18D2
:1001B000D7280C11831203138B1708008312031323
:1001C00091309F00000000000000000000000000CF
:1001D0009F149F18E9280310831603139E0A1E0C10
:1001E00083120313A10008000616270887000617CC
:0601F00000008613080068
:02400E00F73F7A
:00000001FF
